:05020C000343000000A7
:10001E001202FFE4F5A07BFF7A0179C5E4FF12021C
:10002E00517BFF7A0179C57F011202517BFF7A0263
:10003E0079CD7F021202517BFF7A0279CD7F0312B6
:10004E000251E54375F00A84FDE4FF1202B1E54367
:10005E0075F00A84ADF07F011202B17D0A7F0212A3
:10006E0002B1E54475F00A84FD7F031202B1E54446
:10007E0075F00A84ADF07F041202B17D0A7F05127D
:10008E0002B1E54575F00A84FD7F061202B1E54521
:0E009E0075F00A84ADF07F071202B102002453
:10021100043600000000042E00000000043200003B
:020221000000DB
:1001C500EF6003BF0111EF700874432546F81680F0
:1001D5000674432546F806E546D394004015744356
:1001E5002546F8E6FFB43C03E4F622EFB4FF0376B8
:1001F5003B222274432546F8E6FFB41803E4F622B1
:07020500EFB4FF027617229F
:1002CD00BF0204154680020546E546B40304E4F575
:0B02DD004622E546B4FF0375460222EE
:1002FF0053890F438901758D67758BFCC28FD2AB04
:05030F00D2AFD28E22E6
:03001B000200AC34
:1000AC00C0E0C0F0C083C082C0D075D000C000C01A
:1000BC0001C002C003C004C005C006C007758D672F
:1000CC00758BFCE5392401F539E43538F538E43520
:1000DC0037F537E43536F536E47FBDFEFDFCAB393C
:1000EC00AA38A937A836C31202E8700A0545F539B3
:1000FC00F538F537F536E545B43C0575450005444E
:10010C00E544B43C057544000543E543B418037558
:10011C004300D007D006D005D004D003D002D001C4
:0D012C00D000D0D0D082D083D0F0D0E0320F
:100223001816003F0006005B004F0066006D007D5E
:100233000007007F006F008000000E080077007C3D
:0A0243000039005E00790071000030
:1002B100C374079FFF25E025E0F5A0ED25E0241696
:0C02C100F808E6F580120003E4F5802246
:03024D0001460265
:080251008F3A8B3B8A3C893D8A
:10025900A8077401088002C333D8FCF53E55B07075
:100269001E7F0FFE120289E5B0553E60FA7F0F7EB0
:0F02790000120289853D82853C83AF3A1202FD57
:010288002253
:040289008E3F8F40D5
:10028D00E4F541F542C3E5429540E53F6480F8E56C
:10029D0041648098500D1200030542E54270E60559
:0302AD004180E2AB
:0102B000222B
:100003005389F0438901758A67758CFCC28DD28C44
:08001300308DFDC28CC28D226C
:03000000020139C1
:0C013900787FE4F6D8FD75814602018055
:1002E800EB9FF5F0EA9E42F0E99D42F0E89C45F06C
:0102F80022E3
:0602F9008A838982E47390
:1001450002001EE493A3F8E493A34003F68001F2B2
:1001550008DFF48029E493A3F85407240CC8C333BB
:10016500C4540F4420C8834004F456800146F6DF8A
:10017500E4800B010204081020408090020CE47E0C
:10018500019360BCA3FF543F30E509541FFEE4937F
:10019500A360010ECF54C025E060A840B8E493A346
:1001A500FAE493A3F8E493A3C8C582C8CAC583CA71
:1001B500F0A3C8C582C8CAC583CADFE9DEE780BE29
:0102500000AD
:00000001FF
