:1002A100E4F50BF50AF509F508F50FF50EF50DF571
:1002B1000CF510F5181207477B017A00790002044A
:1002C10038AF0FAE0EAD0DAC0C7B007A0079111278
:1002D10005EE7B007A007911E4F5257D011206F324
:1002E10012064E8F10E5101201C0043B11038D124E
:1002F100037314038118036922035F240355280340
:100301004B42034144033748041381032D820323E5
:1003110084031988000002C27B007A00790C7D01F8
:1003210080587B007A00790C7D02804E7B007A0038
:10033100790C7D0380447B007A00790C7D04803A3E
:100341007B007A00790C7D0580307B007A00790C86
:100351007D0680267B007A00790C7D07801C7B005E
:100361007A00790C7D0880127B007A00790C7D0976
:1003710080087B007A00790CE4FD1206A50202C216
:100381007B007A00790C1207620202C2E518146040
:100391003E14605C240260030202C27B017A007990
:1003A10033E4F525FD1206F3850F0B850E0A850D45
:1003B10009850C08751801E4F50FF50EF50DF50C1E
:1003C1007FDC7E0512071F7B017A00794480687B00
:1003D100017A007944E4F525FD1206F37B007A00E9
:1003E100790CAF0BAE0AAD09AC081205880202C246
:1003F1007B007A00790CAF0BAE0AAD09AC0812058F
:1004010088EF70030202C2E4F5187B017A007900DB
:10041100803FE518640160030202C27518027B0186
:100421007A007988F525FD1206F37F207E031207F5
:100431001F7B017A007911E48017E4F50FF50EF5C1
:100441000DF50CE51860137518017B017A007944EC
:0D045100E4F525FD1206F30202C20202C20C
:04071F008E268F276C
:10072300E4F528F529C3E5299527E5266480F8E54E
:1007330028648098500D12077D0529E52970E60588
:030743002880E229
:010746002290
:10077D005389F0438901758A67758CFCC28DD28CC3
:08078D00308DFDC28CC28D22EB
:10079500C2A6C2A58F80D2A77F017E0012071FC205
:0207A500A72289
:1007A700D2A6C2A58F80D2A77F017E0012071FC2E3
:0207B700A72277
:100747007F381207957F0C1207957F061207957F52
:0B075700011207957F017E0002071FC2
:0E07B900EF600474402DFDED4480FF020795B3
:1006F3008B218A228923AF05AD251207B9AB21AA25
:1007030022A92312000360130523E52370020522A7
:0C07130014F9120003FF1207A780E22275
:10045E006099000050617373776F726420536574F6
:10046E003A202020004F6C642050617373776F72B6
:10047E00643A202020004E65772050617373776FA9
:10048E0072643A2020200050617373776F7264207B
:10049E005365747465642100496E707574205061E3
:1004AE007373776F72643A2000436F727265637470
:1004BE002100000000000000000057726F6E672ED2
:1004CE00202000000000000000000020202020203E
:1004DE002020200000000000000000004368616E34
:0D04EE0067652050617373776F72643A0088
:0E05EE008F1C8E1B8D1A8C198B1D8A1E891F67
:1005FC00752001E47B0AFAF9F8AF1CAE1BAD1AACFE
:10060C00191200C9EB2430FFE520FDC374069DFDD3
:10061C00E49400AB1DAA1EA91F8D82F583EF120076
:10062C001CAF1CAE1BAD1AAC19E47B0AFAF9F8121C
:10063C0000C98F1C8E1B8D1A8C190520E520B40760
:01064C00B2FB
:01064D00228A
:1006A5008D1C8B198A1A891B12016C7BA07A86799D
:1006B500017800D312015B4034AB19AA1AA91B12A9
:1006C500016CE47B0AFAF9F812003EA804A905AA10
:1006D50006AB07E4FCFDFEEB251CFFEE3AFEED390B
:0E06E500FDEC38FCAB19AA1AA91B12018C22DD
:10076200C003C002C00112016CE47B0AFAF9F8125C
:0B07720000C9D001D002D00302018CAE
:0E0588008F1F8E1E8D1D8C1C8B198A1A891BCD
:10059600E4F52012016CAB1FAA1EA91DA81CC312EC
:1005A600015B7B0170117A0079557525077D011273
:1005B60006F3752001800C7A0079667525077D01A2
:1005C6001206F37FDC7E0512071FAB19AA1AA91BB8
:1005D6001201A6000000007B017A007977752507D5
:0705E6007D011206F3AF20B6
:0105ED0022EB
:10064E00E4F519751A08E51AD394004047E51AF433
:10065E00F5907F017E0012071F751B80E51BD3945A
:10066E00084029E590551B701B7F0AFE12071FE5F7
:10067E0090551B60FA7F0A7E0012071FE51A451B74
:10068E00F519FF22E51BC313F51B80D0E51AC31322
:06069E00F51A80B2AF194D
:0106A4002233
:030000000204FCFB
:0C04FC00787FE4F6D8FD758129020543E5
:10000300BB010689828A83E0225002E722BBFE02FB
:09001300E32289828A83E493222E
:10001C00F8BB010DE58229F582E5833AF583E8F01A
:10002C00225006E92582C8F622BBFE05E92582C8C6
:02003C00F222AE
:10003E00E88FF0A4CC8BF0A42CFCE98EF0A42CFC61
:10004E008AF0EDA42CFCEA8EF0A4CDA8F08BF0A4DF
:10005E002DCC3825F0FDE98FF0A42CCD35F0FCEB3E
:10006E008EF0A4FEA9F0EB8FF0A4CFC5F02ECD3903
:0F007E00FEE43CFCEAA42DCE35F0FDE43CFC2270
:10008D0075F008758200EF2FFFEE33FECD33CDCC2A
:10009D0033CCC58233C5829BED9AEC99E5829840AD
:1000AD000CF582EE9BFEED9AFDEC99FC0FD5F0D68A
:1000BD00E4CEFBE4CDFAE4CCF9A88222B800C1B9B4
:1000CD000059BA002DEC8BF084CFCECDFCE5F0CBF2
:1000DD00F97818EF2FFFEE33FEED33FDEC33FCEB2B
:1000ED0033FB10D703994004EB99FB0FD8E5E4F9E6
:1000FD00FA227818EF2FFFEE33FEED33FDEC33FCD3
:10010D00C933C910D7059BE99A4007EC9BFCE99AC6
:10011D00F90FD8E0E4C9FAE4CCFB2275F010EF2F0B
:10012D00FFEE33FEED33FDCC33CCC833C810D7070B
:10013D009BEC9AE899400AED9BFDEC9AFCE899F846
:0E014D000FD5F0DAE4CDFBE4CCFAE4C8F922D9
:10015B00EB9FF5F0EA9E42F0E99D42F0E89C45F0FA
:01016B002271
:10016C00BB010789828A830201F25005E9F802017A
:10017C00E6BBFE05E9F80201FE89828A8302020AC7
:10018C00BB010789828A830202265005E9F8020224
:0A019C001ABBFE05E9F80202322248
:1001A600BB010789828A830202575005E9F80202D9
:0A01B6003EBBFE05E9F802028822B4
:1001C000D083D082F8E4937012740193700DA3A3CE
:1001D00093F8740193F5828883E4737402936860E2
:0601E000EFA3A3A380DFE2
:100508000202A1E493A3F8E493A34003F68001F266
:1005180008DFF48029E493A3F85407240CC8C333F4
:10052800C4540F4420C8834004F456800146F6DFC3
:10053800E4800B010204081020408090045EE47EF1
:10054800019360BCA3FF543F30E509541FFEE493B8
:10055800A360010ECF54C025E060A840B8E493A37F
:10056800FAE493A3F8E493A3C8C582C8CAC583CAAA
:10057800F0A3C8C582C8CAC583CADFE9DEE780BE62
:0104FB000000
:0C01E600E6FC08E6FD08E6FE08E6FF2245
:0C01F200E0FCA3E0FDA3E0FEA3E0FF2280
:0C01FE00E2FC08E2FD08E2FE08E2FF223D
:10020A00E493FC740193FD740293FE740393FF223A
:0C021A00ECF608EDF608EEF608EFF62210
:0C022600ECF0A3EDF0A3EEF0A3EFF0224B
:0C023200ECF208EDF208EEF208EFF22208
:10023E00D083D082E493F608740193F60874029387
:09024E00F608740393F6740473BE
:10025700A8828583F0D083D08212026E12026E12BA
:10026700026E12026EE473E493A3C583C5F0C583DF
:10027700C8C582C8F0A3C583C5F0C583C8C582C8F1
:010287002254
:10028800D083D082E493F208740193F20874029345
:09029800F208740393F27404737C
:00000001FF
