:10000300E4F508E508F4F5A020B1FD7F147E0012A5
:10001300004430B1FD7F147E00120044E508648083
:100023006004E508700EE508B48005E4F508800A6D
:1000330005088006E50825E0F508E508F4F5A08045
:01004300C7F5
:0600AC0012006C02006C62
:10006C00E4F50DF50E120088050EE50E7002050D77
:0B007C00C394F4E50D6480948140EA19
:010087002256
:040044008E098F0A88
:10004800E4F50BF50CC3E50C950AE5096480F8E5C1
:100058000B648098500D120088050CE50C70E605BD
:030068000B80E228
:01006B002272
:100088005389F0438901758A67758CFCC28DD28CBF
:08009800308DFDC28CC28D22E7
:030000000200A05B
:0C00A000787FE4F6D8FD75810E020003A5
:00000001FF
