:0D05210048656C6C6F2C204C434421200079
:10029400E4F50BF50AF509F5081204717BFF7A05FC
:1002A4007921E4F527FD1203BBAF0BAE0AAD09AC0F
:1002B40008751001E4F5111204D8E47F107E0EFDD8
:1002C400FCAB0BAA0AA909A808C312005E4009E402
:1002D400F50BF50AF509F508E50B243CF50BE435B7
:1002E4000AF50AE43509F509E43508F50812052E7E
:0202F40080B7D1
:1004EF00C2A6C2A58F80D2A77F017E00120411C2BF
:0204FF00A72232
:10050100D2A6C2A58F80D2A77F017E00120411C29C
:02051100A7221F
:100471007F381204EF7F0C1204EF7F061204EF7F26
:0B048100011204EF7F027E0002041154
:0E051300EF600474402DFDED4480FF0204EF04
:1003BB008B238A248925AF05AD27120513AB23AAFE
:1003CB0024A92512000360130525E52570020524D9
:0C03DB0014F9120003FF12050180E22259
:1004D8007B007A0079121201487B007A0079128534
:0704E8001127AD100203BB58
:0303E700016402AC
:080381008F5F8B608A618962C5
:10038900A8077401088002C333D8FCF56355B0701F
:100399001E7F14FE120411E5B0556360FA7F147EC6
:1003A90000120411856282856183AF5F1200787F34
:0103B9000142
:0103BA002220
:1003EA001649003F0006005B004F0066006D007D65
:1003FA000007007F006F00800C3D0077007C003909
:06040A00005E00790071A4
:10043900C374079FFF25E025E0F5A0ED25E02449D9
:0C044900F808E6F5801204C0E4F58022FB
:06052E0012045502045501
:10045500E4F50CF50D1204C0050DE50D7002050C53
:0B046500C394F4E50C6480948140EA2D
:010470002269
:040411008E288F2979
:10041500E4F52AF52BC3E52B9529E5286480F8E555
:100425002A648098500D1204C0052BE52B70E60553
:030435002A80E238
:0104380022A1
:1004C0005389F0438901758A67758CFCC28DD28C83
:0804D000308DFDC28CC28D22AB
:1004A700120003FF6003B48009EF7003048006E4C1
:0904B7008003EF25E012001C2275
:1002F600EF6003BF0111EF700874002564F81680E3
:100306000674002564F806E564D39400401574006D
:100316002564F8E6FFB43C03E4F622EFB4FF037667
:100326003B222274002564F8E6FFB41803E4F622A3
:07033600EFB4FF027617226D
:10048C00BF0204156480020564E564B40304E4F55A
:0B049C006422E564B4FF0375640222D3
:0E0148008F268E258D248C238B278A288929CB
:10015600E4F52AF53CEC33501B742D12001C753C5B
:1001660001AF26AE25AD24AC231200508F268E2576
:100176008D248C23C37410953CFFE52AC39F504BF6
:10018600E4FFFEFDFCAB26AA25A924A82312005EE7
:100196004039E47B0AFAF9F8AF26AE25AD24AC2344
:1001A60012033DEB2430FF742B252AF8A607AF2651
:1001B600AE25AD24AC23E47B0AFAF9F812033D8F91
:1001C600268E258D248C23052A80A9E53CB40109B9
:1001D600742B252AF8762D052AE4F53CE53CC395D3
:1001E6002A501EC3E52A953CFF742A2FF8E6AB2752
:1001F600AA28A929853C8275830012002E053C8019
:01020600DB1C
:0102070022D4
:03000000020208F1
:0C020800787FE4F6D8FD75816402024F97
:10000300BB010689828A83E0225002E722BBFE02FB
:09001300E32289828A83E493222E
:10001C00BB010689828A83F0225002F722BBFE01C3
:02002C00F322BD
:10002E00F8BB010DE58229F582E5833AF583E8F008
:10003E00225006E92582C8F622BBFE05E92582C8B4
:02004E00F2229C
:10033D00C2D5E830E70FB2D5E4C39BFBE49AFAE4EB
:10034D0099F9E498F8EC30E717B2D512037312005F
:10035D00B6E4C39BFBE49AFAE499F9E498F88003B8
:10036D001200B630D50DE4C39FFFE49EFEE49DFD63
:04037D00E49CFC22DE
:0E005000C3E49FFFE49EFEE49DFDE49CFC22C1
:10005E00EB9FF5F0EA9E42F0E99D42F0EC6480C819
:06006E0064809845F022B9
:060074008A838982E47317
:10021400020294E493A3F8E493A34003F68001F26A
:1002240008DFF48029E493A3F85407240CC8C333EB
:10023400C4540F4420C8834004F456800146F6DFBA
:10024400E4800B01020408102040809003E7E47E60
:10025400019360BCA3FF543F30E509541FFEE493AF
:10026400A360010ECF54C025E060A840B8E493A376
:10027400FAE493A3F8E493A3C8C582C8CAC583CAA1
:10028400F0A3C8C582C8CAC583CADFE9DEE780BE59
:0104100000EB
:10007A0075F008758200EF2FFFEE33FECD33CDCC3D
:10008A0033CCC58233C5829BED9AEC99E5829840C0
:10009A000CF582EE9BFEED9AFDEC99FC0FD5F0D69D
:1000AA00E4CEFBE4CDFAE4CCF9A88222B800C1B9C7
:1000BA000059BA002DEC8BF084CFCECDFCE5F0CB05
:1000CA00F97818EF2FFFEE33FEED33FDEC33FCEB3E
:1000DA0033FB10D703994004EB99FB0FD8E5E4F9F9
:1000EA00FA227818EF2FFFEE33FEED33FDEC33FCE6
:1000FA00C933C910D7059BE99A4007EC9BFCE99ADA
:10010A00F90FD8E0E4C9FAE4CCFB2275F010EF2F1E
:10011A00FFEE33FEED33FDCC33CCC833C810D7071E
:10012A009BEC9AE899400AED9BFDEC9AFCE899F859
:0E013A000FD5F0DAE4CDFBE4CCFAE4C8F922EC
:00000001FF
